:100000000C94DD090C940E0A0C940E0A0C940E0A42
:100010000C940E0A0C940E0A0C940E0A0C940E0A00
:100020000C940E0A0C940E0A0C940E0A0C940E0AF0
:100030000C940E0A0C941A690C940E0A0C940E0A75
:100040000C940E0A0C940E0A0C940E0A0C940E0AD0
:100050000C940E0A0C940E0A0C940E0A0C943A6A34
:100060000C940E0A0C94046A0C94DA690C940E0A2F
:100070000C940E0A0C940E0A0C940E0A0C940E0AA0
:100080000C940E0A0C940E0A0C940E0A0C940E0A90
:100090000C94A4690C947A690C940E0A0C94846AEA
:1000A0000C940E0A0C940E0A0C940E0A0C940E0A70
:1000B0000C940E0A0C940E0A0C940E0A0C940E0A60
:1000C0000C940E0A0C940E0A0C940E0A0C940E0A50
:1000D0000C940E0A0C940E0A0C940E0A0C940E0A40
:1000E0000C940E0A4661696C656420746F20726519
:1000F00061642066696C652C207573696E67206485
:10010000656661756C7420636F6E66696775726190
:1001100074696F6E004661696C656420746F207746
:100120007269746520746F2066696C650046616948
:100130006C656420746F2063726561746520666904
:100140006C650000000000000000000FC001E01F0F
:10015000E00110186001081863FF041FE200021F8D
:10016000E2000118620001186200021863FF04181F
:1001700060010818600110186001E0000000000034
:100180000000000001800C000300060FC6BFEB1F3B
:10019000E5A02D18651045186508851FE505051FA4
:1001A000E5820D1866820B186302061861820C182E
:1001B00060020018600200186002000000020000E7
:1001C00000020008101C102A10491088900810081E
:1001D0001008100810081008100911089208540897
:1001E0003808100000000001C002201A10241C2052
:1001F000226002900180018001400220041FF8006B
:1002000000000003C00240024003C00180018001E1
:10021000807FFE6186618661866186F3CF92499216
:1002200049F3CF06601668766EC6639669B66DA709
:10023000E5A3C5B18D9189C183718E1188018003B9
:10024000C0018000001F801F801800180118031FC4
:10025000871F8E801CC038E07070E039C01F800F8F
:1002600000040000000FE01830600C4004600C5CDB
:100270003447E4701C4C64739C4C64638C183007E6
:10028000C00000FFF8881488D288D188118FF180CF
:1002900001800180018001BFFDA005A005A005A08F
:1002A00005FFFF3FE0201020082004200420042048
:1002B0000420042004200420042AA42AA42AA42A16
:1002C000A43FFC00000000003E5B4F5B3E3E6B4FD6
:1002D0006B3E1C3E7C3E1C183C7E3C181C577D57D8
:1002E0001C1C5E7F5E1C00183C1800FFE7C3E7FF84
:1002F0000018241800FFE7DBE7FF30483A060E2617
:1003000029792926407F050507407F05253F5A3C6E
:10031000E73C5A7F3E1C1C08081C1C3E7F14227FB1
:1003200022145F5F005F5F06097F017F0066899589
:100330006A606060606094A2FFA29408047E040872
:1003400010207E201008082A1C08081C2A08081EF5
:10035000101010100C1E0C1E0C30383E3830060EDB
:100360003E0E06000000000000005F0000000700D5
:100370000700147F147F14242A7F2A122313086491
:100380006236495620500008070300001C22410035
:100390000041221C002A1C7F1C2A08083E08080075
:1003A0008070300008080808080000606000201015
:1003B0000804023E5149453E00427F4000724949CF
:1003C00049462141494D331814127F1027454545B0
:1003D000393C4A49493141211109073649494936D1
:1003E000464949291E000014000000403400000066
:1003F0000814224114141414140041221408020198
:100400005909063E415D594E7C1211127C7F4949C3
:1004100049363E414141227F4141413E7F49494960
:10042000417F090909013E414151737F0808087F56
:1004300000417F41002040413F017F081422417F5D
:10044000404040407F021C027F7F0408107F3E41F5
:1004500041413E7F090909063E4151215E7F09194C
:100460002946264949493203017F01033F40404064
:100470003F1F2040201F3F4038403F631408146353
:1004800003047804036159494D43007F414141020F
:1004900004081020004141417F0402010204404051
:1004A000404040000307080020545478407F28440F
:1004B00044383844444428384444287F38545454F9
:1004C0001800087E090218A4A49C787F0804047808
:1004D00000447D40002040403D007F102844000043
:1004E000417F40007C047804787C08040478384418
:1004F000444438FC1824241818242418FC7C0804CC
:100500000408485454542404043F44243C404020EC
:100510007C1C2040201C3C4030403C442810284497
:100520004C9090907C4464544C4400083641000048
:1005300000770000004136080002010204023C2658
:1005400023263C1EA1A161123A4040207A3854541F
:1005500055592155557941225454784221555478A2
:100560004020545579400C1E527212395555555938
:10057000395454545939555454580000457C41005D
:1005800002457D420001457C407D1211127DF0281C
:100590002528F07C545545002054547C547C0A098D
:1005A0007F4932494949323A4444443A324A4848F8
:1005B000303A4141217A3A42402078009DA0A07D06
:1005C0003D4242423D3D4040403D3C24FF242448C2
:1005D0007E4943662B2FFC2F2BFF0929F620C0886C
:1005E0007E090320545479410000447D413048483D
:1005F0004A32384040227A007A0A0A727D0D193157
:100600007D2629292F28262929292630484D4020B2
:10061000380808080808080808382F10C8ACBA2F8E
:10062000102834FA00007B000008142A1422221437
:100630002A14085500550055AA55AA55AAFF55FF7A
:1006400055FF000000FF00101010FF00141414FFED
:10065000001010FF00FF1010F010F0141414FC0034
:100660001414F700FF0000FF00FF1414F404FC143E
:100670001417101F10101F101F1414141F00101037
:1006800010F0000000001F101010101F10101010AC
:10069000F010000000FF101010101010101010FFCC
:1006A00010000000FF140000FF00FF00001F1017E3
:1006B0000000FC04F414141710171414F404F400CC
:1006C00000FF00F714141414141414F700F7141492
:1006D00014171410101F101F141414F4141010F019
:1006E00010F000001F101F0000001F14000000FC8D
:1006F000140000F010F01010FF10FF141414FF1479
:100700001010101F00000000F010FFFFFFFFFFF0AF
:10071000F0F0F0F0FFFFFF0000000000FFFF0F0F00
:100720000F0F0F3844443844FC4A4A4A347E0202D0
:100730000606027E027E0263554941633844443C0A
:1007400004407E201E2006027E020299A5E7A5999C
:100750001C2A492A1C4C7201724C304A4D4D3030D3
:1007600048784830BC625A463D3E494949007E01BE
:1007700001017E2A2A2A2A2A44445F444440514ADD
:10078000444040444A51400000FF0103E080FF0024
:100790000008086B6B083612362436060F090F0660
:1007A000000018180000001010003040FF01010088
:1007B0001F01011E00191D1712003C3C3C3C0000AB
:1007C00000000000002100240027002A002D003036
:1007D00000330001010000040107010A01000020AC
:1007E000002300260029002C002F00320000010009
:1007F0000003010601090100000A0B02090C0D0E9D
:1008000008070304010000000000000000000000D1
:1008100000000000000000000000000000000000D8
:100820000000001211100000000000000000000095
:100830000000000000000000000000000004E010C4
:10084000021C07123732292D29252B3900010310EC
:10085000E110031D07062E2C292D2E2E373F0000F8
:10086000021013800A298064022A040000007F2BF2
:10087000040000009F0F0180961180FFB103012C3E
:100880002DB203012C2DB306012C2D012C2DB4010A
:1008900007C003A20284C101C5C2020A00C3028AC2
:1008A0002AC4028AEEC5010E20003601C83A0105AD
:1008B0000000000000000000000000000000000038
:1008C0000000000000000000000000000000000028
:1008D0000000000000000000000000000000000018
:1008E0000000000000000000000000000000000008
:1008F00000000000000000000000000000000000F8
:1009000000000000000000000000000000000000E7
:1009100000000000000000000000000000000000D7
:1009200000000000000000000000000000000000C7
:10093000003FF00000000000000000000000000088
:10094000000000001FFFFFE00000000000000000AA
:100950000000000000000001FFFFFFFE000000009B
:1009600000000000000000000000000FFFFFFFFF7C
:10097000C000000000000000000000000000007F38
:10098000FF8007FFF80000000000000000000000EA
:10099000000001FFE000001FFE000000000000005A
:1009A00000000000000007FE00000001FF800000C2
:1009B000000000000000000000001FF80000000020
:1009C0003FE00000000000000000000000007FC0C9
:1009D000000000000FF80000000000000000000010
:1009E0000001FF000000000003FE00000000000006
:1009F000000000000003FC000000000000FF0000F9
:100A000000000000000000000007F00000000000EF
:100A1000003F80000000000000000000001FC00038
:100A200000000000000FE0000000000000000000D7
:100A3000003F8000000000000007F0000000000000
:100A400000000000007E0000000000000001F8002F
:100A5000000000000000000000FC0000000000009A
:100A60000000FC00000000000000000001F8000091
:100A70000000000000007E000000000000000000F8
:100A800003F000000000000000003F000000000034
:100A90000000000007C000000000000000000F8000
:100AA00000000000000000000F80000000000000B7
:100AB000000007C000000000000000001F00000050
:100AC00000000000000003E0000000000000000043
:100AD0003E01008300000300C00C01F00000000094
:100AE000000000007E01008300301880C00C01F877
:100AF0000000000000000000FC018187819C1001C3
:100B0000E00C00FC0000000000000000F80181047F
:100B100080043001200C007C000000000000000177
:100B2000F000810480063001200C003E000000002F
:100B300000000003E000830CC0061003300C001F0F
:100B40000000000000000003E000C20840041C0296
:100B5000100C001F0000000000000007C000420849
:100B600040040702100C000F800000000000000786
:100B70008000460860080182180C00078000000011
:100B80000000000F8000641FE01800C7F80C000789
:100B9000C00000000000000F00002410203000C43E
:100BA000080C0003C00000000000001F000024101B
:100BB000306000C40C0C0003E00000000000001EC8
:100BC0000000283010C0008C04080001E000000084
:100BD0000000003C000018201180338804B8000099
:100BE000F00000000000003C0000182019FE0C0876
:100BF00006400000F00000000000007C0000000043
:100C00000000000000000000F80000000000007874
:100C1000000000000000000000000000780000005C
:100C2000000000F8000000000000000000000000CC
:100C30007C000000000000F0000000000000000048
:100C4000000000003C000000000000F00000000078
:100C500000000000000000003C000000000000F068
:100C60000000000000000000000000003C00000048
:100C7000000001E000000000000000000000000093
:100C80001E000000000001E0000000000000000065
:100C9000000000001E000000000001E00000000055
:100CA00000000000000000001E000000000001E045
:100CB0000000000000000000000000001E00000016
:100CC000000003C0060080000000C000000000001B
:100CD0000F000000000003C00701C0000000C000BA
:100CE000000000000F000000000003C00701C0006A
:100CF0000000C000000000000F000000000003C062
:100D0000050240000000C000000000000F000000CD
:100D1000000003C0048240C01880C00600C08400E8
:100D20000F000000000003C0048242306780C01939
:100D3000833093000F0000000000078004864010FD
:100D4000C180C020C608E080078000000000078046
:100D500004C440108180C0204408C0800780000087
:100D600000000780044440198180C0606C0CC0C042
:100D70000780000000000780044841F98180C060BE
:100D80006C0CC0C007800000000007800468421996
:100D90008180C0606C0CC0C007800000000007802C
:100DA000042846188180C0204408C08007800000C5
:100DB00000000780043046188180C030C618C0800B
:100DC0000780000000000780043043386580C019A8
:100DD0008330F30007800000000007800C1041887A
:100DE0001180FF0600C0CC000780000000000780D3
:100DF00000000000010000000000C00007800000AB
:100E00000000078000000000010000000000C0009A
:100E100007800000000003C000000000C6000000C2
:100E20000000C0000F000000000003C00000000030
:100E3000300000000000C0000F000000000003C0F0
:100E40000000000000000000000000000F00000093
:100E5000000003C0000000000000000000000000CF
:100E60000F000000000003C00000000000000000B0
:100E7000000000000F000000000003C000000000A0
:100E800000000000000000000F000000000001E072
:100E90000000000000000000000000001E00000034
:100EA000000001E000000000000000000000000061
:100EB0001E000000000001E00038000000000000FB
:100EC000630000001E000000000001E001C40000FB
:100ED00000000000630000001E000000000000F0A1
:100EE0000300000000C00000630000003C000000A0
:100EF000000000F00600000000C0000063000000D9
:100F00003C000000000000F004000C0841F11060FB
:100F1000630304403C000000000000F80400330DAF
:100F200030C17198630C84C07C0000000000007820
:100F30000C00618C10C1820C631047007800000027
:100F40000000007C0C00408C18C182046310460035
:100F5000F80000000000003C0C00C0CC18C1860660
:100F600063106600F00000000000003C0C00C0CCE4
:100F700018C18606633FE600F00000000000001E76
:100F80000400C0CC18C1860663300601E0000000F2
:100F90000000001F0600408C18C182046310060385
:100FA000E00000000000000F0300618C18C1830CFA
:100FB00063100603C00000000000000F81C4330C62
:100FC00018618198630C4607C0000000000000070C
:100FD00080300C0C1831806063030607800000002D
:100FE00000000007C0000000000000000000000F2B
:100FF0008000000000000003E0000000000000008E
:101000000000001F0000000000000003E0000000DE
:10101000000000000000001F0000000000000001B0
:10102000F0000000000000000000003E0000000092
:1010300000000000F8000000000000000000007C3C
:101040000000000000000000FC00000000000000A4
:10105000000000FC00000000000000007E00000016
:1010600000000000000001F8000000000000000087
:101070003E00000000000000000001F00000000041
:10108000000000001F00000000000000000003E05E
:1010900000000000000000000F80000000000000C1
:1010A000000007C0000000000000000007C00000B2
:1010B0000000000000000F800000000000000000A1
:1010C00003F000000F8001F000003F00000000006E
:1010D0000000000001F800000F8001F000007E0019
:1010E000000000000000000000FC00000F8001F084
:1010F0000000FC000000000000000000007E000076
:101100000F8001F00001F800000000000000000066
:10111000003F80000F8001F00007F0000000000099
:1011200000000000001FC0000F8001F0000FE00071
:1011300000000000000000000007F0000F8001F038
:10114000003F800000000000000000000003FC00E1
:101150000F8001F000FF0000000000000000000010
:101160000001FF000F8001F003FE000000000000FE
:101170000000000000007FC00F8001F00FF80000A9
:10118000000000000000000000001FF00F8001F0D0
:101190003FE000000000000000000000000007FE2B
:1011A0000F8001F1FF80000000000000000000003F
:1011B000000001FFEF8001FFFE00000000000000C2
:1011C000000000000000007FFF8001FFF800000029
:1011D00000000000000000000000000FFF8001FF81
:1011E000C00000000000000000000000000000013E
:1011F000FF8001FE00000000000000000000000071
:10120000000000001F8001F000000000000000004E
:1012100000000000000000000F8001F0000000004E
:101220000000000000000000000000000F8001F03E
:1012300000000000000000000000000000000000AE
:101240000F8001F00000000000000000000000001E
:10125000000000000F8001F000000000000000000E
:1012600000000000000000000F8001F000000000FE
:10127000000000000000000000000000000000006E
:10128000000000000000000000000000000000005E
:10129000000000000000000000000000000000004E
:1012A000000000000000000000000000000000003E
:1012B0004661696C656420746F20726561642066A4
:1012C000696C652C207573696E672064656661754D
:1012D0006C7420636F6E66696775726174696F6E96
:1012E000004661696C656420746F2077726974656B
:1012F00020746F2066696C65004661696C656420C6
:10130000746F206372656174652066696C650002A4
:101310000102102020080810204010204080020107
:1013200002010804020101020408102040808040EC
:1013300020100804020180040201804020100804EB
:101340000201080402010102040810204080010289
:1013500004081020408000002200250028002B00F7
:101360002E003100340002010000050108010B01CC
:1013700005050505070508080808020202020A0A11
:10138000080804040404010101010101010103032F
:10139000030303030303040707070C0C0C0C0C0CDA
:1013A0000C0C0202020206060606060606060B0BD7
:1013B0000B0B0B0B0B0BA46B7E7711241FBECFEF17
:1013C000D1E2DEBFCDBF00E00CBF19E0A0E0B2E08B
:1013D000EAE5FAEF00E00BBF02C007900D92A838D3
:1013E000B107D9F723E1A8E8B9E001C01D92AA31FD
:1013F000B207E1F719E0CCEDD9E000E006C0219793
:101400000109802FFE010E94DD7ACB3DD10780E0EB
:101410000807A9F70E94B86D0C941C7D0C9400007D
:10142000CF92DF92EF92FF92CF93DF93EC016A01AC
:101430007B01E889F98982E08083C11481EED806B6
:10144000E104F104A1F060E079E08DE390E0A70110
:1014500096010E94EB7921503109410951095695B5
:10146000479537952795211580E1380798F0E88949
:10147000F989108260E874E88EE190E0A701960196
:101480000E94EB7921503109410951095695479540
:1014900037952795EC85FD853083EE85FF85208384
:1014A000188EEC89FD8986E08083EA89FB8980813A
:1014B00080618083EA89FB89808188608083EA89F2
:1014C000FB89808180688083EA89FB8980818F7DA8
:1014D0008083DF91CF91FF90EF90DF90CF900895C0
:1014E000AF92BF92CF92DF92EF92FF920F931F9332
:1014F000CF93DF936C017B018B01040F151FEB0170
:101500005E01AE18BF08C017D10759F06991D60126
:10151000ED91FC910190F081E02DC6011995892B88
:1015200079F7C501DF91CF911F910F91FF90EF9057
:10153000DF90CF90BF90AF900895FC01448155811A
:101540006081718189EC9FE0CBCFFC01538D448D8C
:10155000252F30E0842F90E0821B930B541710F05E
:10156000CF96089501970895FC01918D828D98176B
:1015700061F0A28DAE0FBF2FB11D5D968C91928D43
:101580009F5F9F73928F90E008958FEF9FEF089574
:10159000FC01918D828D981731F0828DE80FF11D3D
:1015A000858D90E008958FEF9FEF0895FC01918D58
:1015B000228D892F90E0805C9F4F821B91098F7351
:1015C000992708958DE49EE0F1DF21E0892B09F44D
:1015D00020E0822F08958AEE9EE0E8DF21E0892B4B
:1015E00009F420E0822F0895FC01A48DA80FB92FE3
:1015F000B11DA35ABF4F2C91848D90E001968F733B
:101600009927848FA689B7892C93A089B1898C9159
:10161000837080648C93938D848D981306C00288A8
:10162000F389E02D80818F7D80830895EF92FF9272
:101630000F931F93CF93DF93EC0181E0888F9B8DF5
:101640008C8D98131AC0E889F989808185FF15C0AF
:101650009FB7F894EE89FF896083E889F9898081D2
:101660008370806480839FBF81E090E0DF91CF91A1
:101670001F910F91FF90EF900895F62E0B8D10E0C3
:101680000F5F1F4F0F731127E02E8C8D8E110BC033
:101690000FB607FCFACFE889F989808185FFF5CF7D
:1016A000CE01A2DFF2CFEB8DEC0FFD2FF11DE35A3F
:1016B000FF4FF0829FB7F8940B8FEA89FB898081F6
:1016C0008062D0CFCF93DF93EC01888D8823B1F077
:1016D000AA89BB89E889F9898C9185FD03C080813D
:1016E00086FD0CC00FB607FCF7CF8C9185FFF2CFBB
:1016F000808185FFEDCFCE0177DFEACFDF91CF91FB
:10170000089580E090E0892B21F065DF81110E942F
:10171000000080E090E0892B21F054DF81110E94CD
:10172000000080E090E0892B49F080E090E0892B78
:1017300029F00E94000081110E94000080E090E0EA
:10174000892B49F080E090E0892B29F00E9400006D
:1017500081110C94000008958150823108F05AC024
:10176000E82FF0E08827E854F44F8F4F0C94DD7A8F
:10177000D80BDC0BCA0BD00BD40B0A0CDF0BE50B20
:10178000E90BEF0BF30BF70BFD0B010C0A0C050C2F
:101790000B0C0F0C809180008F7780938000089550
:1017A000809180008F7DF9CF80918000877FF5CF79
:1017B00084B58F7784BD089584B58F7DFBCF8091EC
:1017C000B0008F778093B00008958091B0008F7D36
:1017D000F9CF809190008F77809390000895809149
:1017E00090008F7DF9CF80919000877FF5CF809119
:1017F000A0008F778093A00008958091A0008F7D36
:10180000F9CF8091A000877FF5CF809120018F775D
:10181000809320010895809120018F7DF9CF8091E0
:101820002001877FF5CFCF93DF93282F30E0F90198
:10183000E950F84F8491F901E05FFC4ED491F90131
:10184000E059FC4EC491CC2399F0811185DFEC2F37
:10185000F0E0EE0FFF1FE352F84FA591B491EC9129
:10186000ED2381E090E009F480E0DF91CF910895CD
:1018700080E090E0FACF1F93CF93DF93282F30E0E2
:10188000F901E950F84F8491F901E05FFC4ED491E1
:10189000F901E059FC4EC491CC23A1F0162F81111F
:1018A0005BDFEC2FF0E0EE0FFF1FEA5AFC4EA59134
:1018B000B4918FB7F894EC91111108C0D095DE2344
:1018C000DC938FBFDF91CF911F910895DE2BF8CF6E
:1018D000CF93DF93EC0180912E1090912F100297FF
:1018E00049F4C130D10509F43CC07CF560E0209793
:1018F00009F438C080912E1090912F10049749F46C
:10190000C130D10509F456C00CF036C0209709F457
:1019100040C080912E1090912F10059709F0C6C0FD
:10192000CA30D10508F0C2C0FE018827E556F34F42
:101930008F4F0C94DD7AEE0CF80C060D180D2E0D61
:10194000300D360D400D4E0D540DC230D10591F0C5
:1019500060E0C330D10571F6809132108CDF60E019
:1019600005C061E08091321086DF61E08091341023
:1019700082DFC0CF61E0F0CFC230D10509F1C330C2
:10198000D10509F0C6CF61E08091321074DF60E0CC
:101990001CC061E0809132106EDF60E080913410F5
:1019A0006ADF61E08091361066DF60E08091381078
:1019B00062DFAFCF60E0809132105DDF61E0EECF9B
:1019C00060E08091321057DF61E08091341053DF86
:1019D00060E0809136104FDF61E0E8CF60E08091F9
:1019E000321049DF61E08091341045DF61E009C0C9
:1019F00060E0809132103FDF61E0809134103BDF86
:101A000060E08091361037DF60E00DC060E08091CB
:101A1000321031DF61E0809134102DDF60E0809181
:101A2000361029DF61E08091381025DF61E011C0B8
:101A300060E0809132101FDF61E0809134101BDF85
:101A400060E08091361017DF61E08091381013DF7D
:101A500060E080913A10DF91CF910DCF61E0E9CF46
:101A600061E08091321007DF60E0E7CF61E08091B4
:101A7000321001DF60E080913410FDDE61E0E1CFE3
:101A800061E080913210F7DE60E080913410F3DE87
:101A900061E080913610EFDE60E0D7CF61E08091A9
:101AA0003210E9DE60E09FCF60E0F9CFDF91CF91A7
:101AB000089590910D0289130DC0EFE0F3E1E491D8
:101AC0009FEF90930D02E230D9F030F4EE2379F0DD
:101AD000E13081F060E0CFCEE43049F110F1E53043
:101AE000C9F7909173009D7F90937300F3CF10928C
:101AF0006E00F0CF90916F009D7F90936F00EACFC2
:101B0000909170009D7F9093700091E09093B00051
:101B10009091B100987F94609093B1001092B300BF
:101B2000D9CF909171009D7F90937100D3CF909108
:101B300072009D7F90937200CDCFCF93DF9390E0A2
:101B4000FC01E05FFC4E249180599C4EFC01849185
:101B50008823C9F090E0880F991FFC01ED53F84FDE
:101B6000A591B491FC01EA5AFC4EC591D491611142
:101B70000DC09FB7F8948C91209582238C93888117
:101B8000282328839FBFDF91CF910895623051F4BD
:101B90009FB7F8943C91822F809583238C93E881A2
:101BA0002E2BEFCF8FB7F894EC912E2B2C938FBF69
:101BB000EACF0F931F93CF938C0180910D02853351
:101BC00031F08F3F99F1CF911F910F910895EFE080
:101BD000F3E1C491C7FDF7CF61E085E3AEDFC1114A
:101BE0003EC0980150E040E068E478EE81E090E08B
:101BF0000E94BF79BA01A9014150510961097109D7
:101C000085B5887F836085BD47BD8FEF9FEFDC0181
:101C10008093490E90934A0EA0934B0EB0934C0EB6
:101C200080916E00826080936E00CDCF85E38093BB
:101C30000D02EFE0F3E1C4918C2FCF3F09F4C3CF45
:101C4000C23009F492C0B0F5CC2309F458C0C130B9
:101C500009F46DC087FDB7CF61E085E36EDF9801C1
:101C600050E040E0C23009F0DFC060E970ED83E091
:101C700090E00E94BF79BA01A90141505109610960
:101C800071098091B100887F83608093B100409397
:101C9000B3008FEF9FEFDC018093410E9093420ED3
:101CA000A093430EB093440E8091700082608093A5
:101CB000700089CFC43009F499C008F478C0C530E9
:101CC00049F6109220011092210180912101886033
:101CD0008093210180912101816080932101E5EAB7
:101CE000F3E1E491F0E0EE0FFF1FEA5AFC4E85911C
:101CF0009491E5E4F3E1E491E0932D0E6DCF14BCF3
:101D000015BC84B5826084BD85B5816085BDE5EA7A
:101D1000F3E1E491F0E0EE0FFF1FEA5AFC4E8591EB
:101D20009491E5E4F3E1E491E093340E55CF109201
:101D300080001092810080918100886080938100F2
:101D400080918100816080938100E5EAF3E1E49174
:101D5000F0E0EE0FFF1FEA5AFC4E85919491E5E406
:101D6000F3E1E491E093330E37CF1092B00010927C
:101D7000B1008091B00082608093B0008091B1008A
:101D800081608093B100E5EAF3E1E491F0E0EE0FC9
:101D9000FF1FEA5AFC4E859194919093320E8093E6
:101DA000310EE5E4F3E1E491E093300E15CF1092AB
:101DB0009000109291008091910088608093910032
:101DC00080919100816080939100E5EAF3E1E491D4
:101DD000F0E0EE0FFF1FEA5AFC4E85919491E5E486
:101DE000F3E1E491E0932F0EC3E0F6CE1092A00051
:101DF0001092A1008091A10088608093A100809141
:101E0000A10081608093A100E5EAF3E1E491F0E0B4
:101E1000EE0FFF1FEA5AFC4E85919491E5E4F3E141
:101E2000E491E0932E0ED8CE60E072E18AE790E074
:101E30000E94BF79DA01C9010197A109B109AC017A
:101E4000C130D9F420918100287F21602093810046
:101E500090938900809388008FEF9FEFDC0180933F
:101E6000450E9093460EA093470EB093480E809176
:101E70006F00826080936F00A6CEC330D9F42091AA
:101E80009100287F21602093910090939900809386
:101E900098008FEF9FEFDC0180933D0E90933E0EF4
:101EA000A0933F0EB093400E8091710082608093AA
:101EB000710089CEC430D9F42091A100287F21601F
:101EC0002093A1009093A9008093A8008FEF9FEF2B
:101ED000DC018093390E90933A0EA0933B0EB093A1
:101EE0003C0E809172008260809372006CCEC5308F
:101EF000D9F420912101287F216020932101909322
:101F00002901809328018FEF9FEFDC018093350E2C
:101F10009093360EA093370EB093380E80917300D5
:101F20008260809373004FCEC23009F4B0CE3CF48F
:101F3000CC2309F469CEC13009F045CE89CFC43035
:101F400009F20CF4A2CFC530D1F23DCE863308F0B1
:101F5000865320917B00982F9870277F922B909327
:101F60007B008770806480937C0080917A0080641D
:101F700080937A0080917A0086FDFCCF8091780072
:101F800090917900089582E4E1DFA0912210B09150
:101F900023109C010E94E57A2FEF33E040E050E0EF
:101FA0000E94BF798091201090912110281B390B3D
:101FB000C90137FF04C088279927821B930B4091E2
:101FC0002410509125108417950714F430E020E078
:101FD000C90108953FB7F8948091330A9091340A6B
:101FE000A091350AB091360A26B5A89B05C02F3FAF
:101FF00019F00196A11DB11D3FBFBA2FA92F982F2F
:102000008827BC01CD01620F711D811D911D42E029
:10201000660F771F881F991F4A95D1F708954F9231
:102020005F926F927F928F929F92AF92BF92EF9248
:10203000FF920F931F93CF93DF93EC0197FF04C0A0
:10204000CC27DD27C81BD90B181619060CF05FC06A
:1020500081E090E0909327108093261004E010E038
:102060008AE0E82EF12C209709F46DC0B3DF809050
:102070003C1090903D10A0903E10B0903F102B016E
:102080003C01481859086A087B08809028109090F5
:102090002910A0902A10B0902B10481459046A04FB
:1020A0007B0408F360933C1070933D1080933E10C6
:1020B00090933F1080913010909131102091261014
:1020C000309127102130310551F501969093311050
:1020D0008093301020912C1030912D10821793078F
:1020E00021F410923110109230102197809130100D
:1020F0009091311020912E1030912F10B701253082
:10210000310509F0B8010E94CA7AE2DBACCF892B15
:1021100009F4A4CF10922710109226109FCF892B7C
:1021200041F480912C1090912D1090933110809358
:1021300030108091301090913110019790933110B0
:1021400080933010D2CFDF91CF911F910F91FF90EC
:10215000EF90BF90AF909F908F907F906F905F9027
:102160004F9008958F929F92AF92BF92CF92DF923D
:10217000EF92FF926B017C012DDF4B015C01C114DA
:10218000D104E104F104B1F025DF681979098A0965
:102190009B09683E73408105910588F321E0C21ACE
:1021A000D108E108F10888EE880E83E0981EA11C92
:1021B000B11CE5CFFF90EF90DF90CF90BF90AF9034
:1021C0009F908F900895CF92DF92EF92FF92CF93DE
:1021D000DF93C5E0D0E0C12CD12C760180E4B6DEDF
:1021E000092E000CAA0BBB0BC80ED91EEA1EFB1E43
:1021F00065E070E080E090E0B5DF219779F7C701F6
:10220000B60125E030E040E050E00E94EB79CA01E1
:10221000B901DF91CF91FF90EF90DF90CF900895BB
:102220002FB7F89460912F0A7091300A8091310A8B
:102230009091320A2FBF08950F931F938091BE0F84
:10224000882351F1EDDF0091BF0F1091C00F209155
:10225000C10F3091C20F601B710B820B930B009169
:10226000C30F1091C40F2091C50F3091C60F601796
:1022700071078207930780F0D3DF6093BF0F7093DD
:10228000C00F8093C10F9093C20FE091C70FF091E0
:10229000C80F1F910F9119941F910F910895FC0180
:1022A000A5A1B6A18C9192A589238C93A5A1B6A1D5
:1022B0008C9191A5892B8C930895DC019396ED91D7
:1022C000FC919497908198968C91892380830895AE
:1022D000DC019396ED91FC919497908197968C9167
:1022E000892B80830895DC019196ED91FC91929762
:1022F000908196968C91892380830895DC01919634
:10230000ED91FC919297908195968C91892B808389
:102310000895CF92DF92EF92FF921F93CF93DF93B6
:10232000EC016A017B018DA9811123C08F2D9927B2
:10233000AA27BB278EBD0DB407FEFDCFC701AA2774
:10234000BB278EBD0DB407FEFDCFBB27AF2D9E2D45
:102350008D2D8EBD0DB407FEFDCFCEBC0DB407FE96
:10236000FDCFDF91CF911F91FF90EF90DF90CF9045
:102370000895813091F410E2CE01F7FE0CC0BEDF6B
:10238000CE01A6DFCE0199DFCC0CDD1CEE1CFF1CBC
:10239000115091F7E6CFA7DFF3CFEF8DF8A18F2D86
:1023A0009927AA27BB278083CE0179DFEF8DF8A17B
:1023B000C701AA27BB278083CE0171DFEF8DF8A16B
:1023C000BB27AF2D9E2D8D2D8083CE0168DFEF8D35
:1023D000F8A1C082CE01DF91CF911F91FF90EF90C5
:1023E000DF90CF905CCFFF920F931F93CF93DF933B
:1023F000EC018B018DA981110EC01EBD0DB407FE2D
:10240000FDCF0EBD0DB407FEFDCFDF91CF911F9123
:102410000F91FF900895813091F490E1F92ECE0153
:1024200017FF0BC06BDFCE0153DFCE0146DF000F7D
:10243000111FFA94F110F3CFE8CF55DFF4CFEF8DF1
:10244000F8A11083CE012BDFEF8DF8A10083CE0120
:10245000DF91CF911F910F91FF9021CF0F931F9389
:10246000CF93DF93EC01162F8DA9811109C06EBDAA
:102470000DB407FEFDCFDF91CF911F910F9108950D
:10248000813079F408E0CE0117FF09C037DFCE01B3
:102490001FDF110FCE0111DF0150A9F7ECCF23DFB1
:1024A000F6CFEF8DF8A16083CE01DF91CF911F9120
:1024B0000F91F5CECF93DF93EC01ED8DFE8D8081F2
:1024C0009CA989238083CE01C9DFED8DFE8D80819B
:1024D0009BA9892B8083DF91CF9108958F929F9242
:1024E000AF92BF92CF92DF92EF92FF920F931F9322
:1024F000CF93DF93EC0189AD9AAD680F791F8BAD57
:102500009CAD480F591F21503109260F371F490133
:10251000B12CA12CCB01B0E0A0E0DC0199278827E9
:10252000882A992AAA2ABB2A680181E0C81AD108F8
:10253000C40ED51EF12CE12C70E060E0BA015527E5
:102540004427C42AD52AE62AF72A6AE2CE01B2DF56
:10255000B501A401CE01DDDE6BE2CE01ABDFB70138
:10256000A601CE01D6DE6CE2CE01DF91CF911F91A4
:102570000F91FF90EF90DF90CF90BF90AF909F9022
:102580008F9098CF1F93CF93DF93EC01162FE881A4
:10259000F9810284F385E02D1995112369F06DAD61
:1025A000CE0188DFE881F9810688F789E02DCE0128
:1025B000DF91CF911F9119946EADF2CFAF92BF9280
:1025C000CF92DF92EF92FF920F931F93CF93DF93FF
:1025D000EC0177FD37C0888599856817790794F5F0
:1025E00057FD30C08A859B85481759075CF56901FE
:1025F0007A015B01E881F9810284F385E02DCE0147
:102600001995E881F98102A4F3A5E02D01E010E01D
:1026100021E030E0A701B501CE011995B601CE0148
:10262000E2DEE881F9810688F789E02DCE01DF91AD
:10263000CF911F910F91FF90EF90DF90CF90BF90BF
:10264000AF901994DF91CF911F910F91FF90EF9070
:10265000DF90CF90BF90AF9008958F929F92AF92EE
:10266000BF92CF92DF92EF92FF920F931F93CF937F
:10267000DF93EC0149015701E881F98102A4F3A538
:10268000E02D19959401D8010E94E57A6B017C0137
:10269000C114D104E104F10409F472C08DA98111BF
:1026A00015C081E0C81AD108E108F1088FEFC816FB
:1026B000D806E806F80609F463C0BEBC0DB407FEF0
:1026C000FDCFAEBC0DB407FEFDCFEBCF813059F589
:1026D00081E0C81AD108E108F1088FEFC816D806C2
:1026E000E806F80609F44CC00B2D18E0CE0107FFF0
:1026F00016C004DECE01ECDDCE01DFDD000F11508F
:10270000A9F70A2D18E0CE0107FF0BC0F7DDCE01B7
:10271000DFDDCE01D2DD000F1150A9F7D9CFE3DD07
:10272000E9CFE1DDF4CFBA1015C0CC0CDD1CEE1CF6
:10273000FF1CEF8DF8A1B08281E0C81AD108E10832
:10274000F1088FEFC816D806E806F806C9F0CE01E2
:10275000A6DDF2CF81E0C81AD108E108F1088FEFB9
:10276000C816D806E806F80659F0EF8DF8A1B08231
:10277000CE0195DDEF8DF8A1A082CE0190DDEACFEC
:10278000DF91CF911F910F91FF90EF90DF90CF904D
:10279000BF90AF909F908F9008958F929F92AF922D
:1027A000BF92CF92DF92EF92FF920F931F93CF933E
:1027B000DF935C014B016A01E90177FD51C0DC0147
:1027C00018968D919C91681779070CF049C0209755
:1027D00009F446C037FF07C0C9010196C80ED91ECB
:1027E000D195C195D109F50182859385C816D90681
:1027F000BCF5A6014C0F5D1F9A012150310937FD30
:102800002FC0D7FE03C0EA01D12CC12C28173907ED
:102810001CF0EC01CC19DD09D501ED91FC9102848D
:10282000F385E02DC501199578018E0121E030E096
:10283000A601B401C50111DFD501ED91FC91068817
:10284000F789E02DC501DF91CF911F910F91FF9086
:10285000EF90DF90CF90BF90AF909F908F901994A2
:10286000DF91CF911F910F91FF90EF90DF90CF906C
:10287000BF90AF909F908F9008958F929F92AF924C
:10288000BF92CF92DF92EF92FF920F931F93CF935D
:10289000DF935C016B014A01E90157FD51C0DC0186
:1028A0001A968D919C91481759070CF049C02097B2
:1028B00009F446C037FF07C0C9010196C80ED91EEA
:1028C000D195C195D109F50180859185C816D906A4
:1028D000BCF5A6014C0F5D1F9A012150310937FD4F
:1028E0002FC0D7FE03C0EA01D12CC12C281739070D
:1028F0001CF0EC01CC19DD09D501ED91FC910284AD
:10290000F385E02DC5011995780101E010E09E01E5
:10291000A401B601C501A1DED501ED91FC910688A7
:10292000F789E02DC501DF91CF911F910F91FF90A5
:10293000EF90DF90CF90BF90AF909F908F901994C1
:10294000DF91CF911F910F91FF90EF90DF90CF908B
:10295000BF90AF909F908F9008958F929F92AF926B
:10296000BF92CF92DF92EF92FF920F931F93CF937C
:10297000DF934C016B015A01E901209709F46BC008
:102980000115110509F467C037FF07C0C901019699
:10299000C80ED91ED195C195D109F401A085B18584
:1029A000CA16DB060CF057C017FF07C0C801019616
:1029B000A80EB91E119501951109F4018285938520
:1029C000A816B9060CF047C0F601EC0FFD1FAF01C9
:1029D0004150510957FD3FC0B501600F711F9B0168
:1029E0002150310937FD37C0D7FE03C0EF01D12C8C
:1029F000C12CB7FE03C08B01B12CA12C4A175B0779
:102A00001CF0ED01CC19DD09281739071CF08C01E9
:102A10000A191B09D401ED91FC910284F385E02D84
:102A2000C40119959E01A501B601C40116DED401A9
:102A3000ED91FC910688F789E02DC401DF91CF91DB
:102A40001F910F91FF90EF90DF90CF90BF90AF90CC
:102A50009F908F901994DF91CF911F910F91FF90CC
:102A6000EF90DF90CF90BF90AF909F908F900895A0
:102A7000EF92FF920F931F93CF93DF9377FD31C0B7
:102A8000DC011896ED91FC916E177F0754F5211526
:102A9000310539F137FF07C0F90131964E0F5F1F3D
:102AA000319521953109DC011A96ED91FC914E1773
:102AB0005F07BCF4EA01C20FD31FDE011197B7FD17
:102AC00010C057FF03C09E0150E040E0AE17BF07A3
:102AD0001CF09F01241B350B7801890121E030E0B7
:102AE000BCDDDF91CF911F910F91FF90EF90089582
:102AF000EF92FF920F931F93CF93DF9357FD30C058
:102B0000DC011A96ED91FC914E175F074CF52115EB
:102B1000310531F137FF07C0F90131966E0F7F1F84
:102B2000319521953109DC011896ED91FC916E17D4
:102B30007F07B4F4EB01C20FD31FDE011197B7FD7D
:102B40000FC077FF03C09E0170E060E0AE17BF07C3
:102B50001CF09F01261B370B780101E010E07DDDA2
:102B6000DF91CF911F910F91FF90EF9008958F9279
:102B70009F92AF92BF92CF92DF92EF92FF920F930C
:102B80001F93CF93DF9347012115310509F44AC004
:102B90000115110509F446C037FF07C0F901319648
:102BA0006E0F7F1F319521953109DC011896AD908C
:102BB000BC906A157B05B4F517FF07C0F801319684
:102BC0004E0F5F1F119501951109DC011A96ED91C9
:102BD000FC914E175F0734F56B01C20ED31EE60160
:102BE0002197D7FD1FC07A01E00EF11ED701119782
:102BF000B7FD18C077FF03C0960170E060E057FF93
:102C000003C0870150E040E0CA15DB051CF09501C8
:102C1000261B370BAE17BF071CF08F01041B150BCB
:102C200074011BDDDF91CF911F910F91FF90EF9009
:102C3000DF90CF90BF90AF909F908F900895EF92CC
:102C4000FF920F931F93CF93DF93EC0177FD21C089
:102C50008885998568177907E4F457FD1AC08A8535
:102C60009B8548175907ACF47901E881F98102A4E2
:102C7000F3A5E02D01E010E021E030E0CE01199550
:102C8000B701CE01DF91CF911F910F91FF90EF908F
:102C9000AACBDF91CF911F910F91FF90EF900895F4
:102CA0000895FC016370668B84819581268137814C
:102CB000613039F0633029F091878087338722872C
:102CC0000895318720879387828708952F923F92B6
:102CD0004F925F926F927F928F929F92AF92BF922C
:102CE000CF92DF92EF92FF920F931F93CF93DF93D8
:102CF000CDB7DEB76A970FB6F894DEBF0FBECDBF73
:102D00009A8F898F7A8369834A01D22E18870F831D
:102D10003701BC2CDC0159962D913C915A97211515
:102D2000310509F015C118968D919C911997681776
:102D300079070CF0D7C11A968D919C9148175907C5
:102D40000CF0D0C14C2C512CB6E0CB9E600D711D07
:102D500011247C876B87161617060CF0C3C1EA2D69
:102D6000F0E0FA87E98793E0EE0FFF1F9A95E1F70D
:102D7000F88BEF87CF01840F951F181619060CF0FA
:102D8000B1C1A98DBA8D58968C91811104C0BFEA4A
:102D9000BD1508F4D394A98DBA8DED91FC911197CE
:102DA0000284F385E02DCD011995B5E0DB9EC001CD
:102DB0001124E981FA81FC83EB83312C212C9C01C5
:102DC0002D533D4F388F2F8B4A2D50E05E8B4D8B0E
:102DD000EF89F88DE20DF31D44919E828D82D12CF6
:102DE000C12C69817A81620D731D7A8B698B842F66
:102DF00090E09C8B8B8BE98DFA8DA081B18140FF97
:102E000082C0F1E0BF126FC0AF126DC01C96ED9191
:102E1000FC912F813885A4014C0D5D1D69897A894B
:102E2000898D9A8D1995EB89FC89F595E7954E2F3B
:102E30005FEFC51AD50A6D817E818D899E89680FE5
:102E4000791F7E836D8398E0C916D10481F6AFEFB8
:102E50002A1A3A0AEB81FC81E40DF51DFC83EB8311
:102E6000F5E02F16310409F0B3CF2F8138852615F0
:102E70003705B9F0A98DBA8DED91FC91B1E0BB1287
:102E800057C0AB1255C069817A816B5F7F4F008854
:102E9000F189E02D830128E030E0A401898D9A8D2D
:102EA0001995A98DBA8DED91FC9111970688F78936
:102EB000E02DCD016A960FB6F894DEBF0FBECDBFF0
:102EC000DF91CF911F910F91FF90EF90DF90CF9006
:102ED000BF90AF909F908F907F906F905F904F903A
:102EE0003F902F9019941E96ED91FC91EF80F884FD
:102EF00009851A8592014D815E816B817C81898D66
:102F00009A8D199590CF2F8138852615370509F4AC
:102F10008ACF31E0B31207C0A31205C01C96ED9111
:102F2000FC91930178CF1E96ED91FC917301E0CF57
:102F30006B857C85641975090684F785E02D73011E
:102F40000F8518899201A401898D9A8D1995A9CFB1
:102F5000F90134969491329745915491D91AB7E07A
:102F6000DB9E400D511D1124F901259134913C8BBC
:102F70002B8BFA0125903490FA0132967490319699
:102F80003491398B329664903196449041E04C15DF
:102F900018F04A1508F07FC0662D062C000C770B40
:102FA0007C836B83842D042C000C990B9E838D8372
:102FB000A98DBA8DED91FC9111970284F385E02DD6
:102FC000CD011995512CD12CC12CEA2DF0E0FA87B6
:102FD000E9872B2D30E03C872B87A401440D511D40
:102FE00047FC5A95588F4F8B69817A81660D711D08
:102FF00067FC7A957E876D877989C71608F051CF6F
:103000002C2D30E04D815E81420F531FA985BA857A
:103010004A9FC0014B9F900D5A9F900D1124FC01B7
:10302000E80DF91DF88BEF87852D612C4F89588DA0
:10303000420F531F5E8B4D8B671408F050C0442421
:103040004394480E877041F4C1010196EB89FC89D5
:10305000E20DF31DD4901C01D7FE19C0A98DBA8DC5
:10306000ED91FC91662D70E0B1E0BB1219C0AB127E
:1030700017C02D853E85620F731F0484F585E02DF2
:103080002F8138854D895E89898D9A8D1995DD0C42
:103090006394842DD1CF1E821D821C821B8288CF17
:1030A0004B815C81640F751FAB85BC856A9FC00135
:1030B0006B9F900D7A9F900D112469817A81680F22
:1030C000791F0684F785E02DEF80F88409851A853D
:1030D0009D014F855889898D9A8D1995D8CF570CA8
:1030E000C3948ACF6A960FB6F894DEBF0FBECDBFE9
:1030F000DF91CF911F910F91FF90EF90DF90CF90D4
:10310000BF90AF909F908F907F906F905F904F9007
:103110003F902F9008958F929F92AF92CF92EF920F
:10312000FF920F931F93CF93DF93EC01262F898D8E
:103130009A8D009709F050C06A30D1F41D861C8624
:103140008D8948E0849F900111248E859F85820F90
:10315000931F9F878E8781E090E0DF91CF911F9131
:103160000F91FF90EF90CF90AF909F908F90089528
:103170006D3089F3CC88AD888F898823C1F08C8528
:103180009D8536E0C39E800D911D1124488559858B
:103190004817590764F44E855F851D861C8638E004
:1031A000A39EC0011124840F951F9F878E87EA88F4
:1031B000FB88088919894E855F856C857D85CE01E0
:1031C00085DD2C898C859D8546E0249F800D911D91
:1031D00011249D878C87BFCF6A3069F41D861C86B9
:1031E000FC013696E4912D898E859F85E29F800DA6
:1031F000911D1124AECF6D3009F4ADCFFC01349692
:103200003491631708F4A7CF3196E491E61708F4D8
:10321000A2CFFC01329685909490462F431B342F09
:1032200047E0349F800C911C1124F40132963491B4
:103230003196E4913323A1F1EE2391F1CC88F4018E
:103240003596E491AD884F89442301F10E2E000C90
:10325000FF0BE30FF11DCE9EA001CF9E500D112458
:103260006C857D85460F571F6885798564177507BE
:103270006CF44E855F851D861C86FC013696E491B4
:10328000AE9E400D511D11245F874E87EA88FB8852
:10329000088919894E855F856C857D85CE0116DD8F
:1032A000F4013496E4912C898C859D85E29F800DF4
:1032B000911D11248ECF6F927F928F929F92AF9229
:1032C000BF92CF92DF92EF92FF920F931F93CF9313
:1032D000DF93EC016B015A0139014801E881F98162
:1032E0000284F385E02D1995E881F9810288F3893C
:1032F000E02D87019301A501B601CE011995A50125
:10330000480D591D41505109E881F9810288F3891E
:10331000E02D9301B601CE011995E881F98100886D
:10332000F189E02D9401A501B601CE011995C60CD5
:10333000D71CB60161507109E881F9810088F189D3
:10334000E02D9401A501CE011995E881F981068847
:10335000F789E02DCE01DF91CF911F910F91FF9062
:10336000EF90DF90CF90BF90AF909F908F907F9025
:103370006F9019946F927F928F929F92AF92BF92AB
:10338000CF92DF92EF92FF920F931F93CF93DF9331
:103390005C01EB016A01490138018701DC01ED9113
:1033A000FC916217730719F5641675062CF0962DBB
:1033B000872D3A01C92ED82E9601261937092F5F7D
:1033C0003F4F048CF58DE02DA301BE01C501199579
:1033D000DF91CF911F910F91FF90EF90DF90CF90F1
:1033E000BF90AF909F908F907F906F9008954615FB
:1033F000570591F42617370724F0892D4B01C22F6A
:10340000D82F9E01281939092F5F3F4F068CF78D61
:10341000E02DA601B401DACF0284F385E02D1995E1
:10342000D501ED91FC910488F589E02D830194018B
:10343000A601BE01C5011995D501ED91FC91068843
:10344000F789E02DC501DF91CF911F910F91FF907A
:10345000EF90DF90CF90BF90AF909F908F907F9034
:103460006F901994EF92FF920F931F93DC011A96BD
:103470000D911C911B9718962D913C911997ED91E8
:10348000FC9100A0F1A1E02D7B0150E040E070E054
:1034900060E019951F910F91FF90EF9008954F9262
:1034A0005F926F927F928F929F92AF92BF92CF92D4
:1034B000DF92EF92FF920F931F93CF93DF936C01F4
:1034C0002B015A0139014801DC01ED91FC91028484
:1034D000F385E02D1995E201640C751CD601ED9180
:1034E000FC91C615D7055CF40088F189E02D8701B1
:1034F0009401A501BE01C60119952196EFCF06885A
:10350000F789E02DC601DF91CF911F910F91FF90B8
:10351000EF90DF90CF90BF90AF909F908F907F9073
:103520006F905F904F9019948F929F92AF92BF923D
:10353000CF92DF92EF92FF920F931F93CF93DF937F
:10354000EC015B014A016901E881F9810284F3859C
:10355000E02D199595012C0D3D1D21503109E88173
:10356000F9810488F589E02D78018401A401B50171
:10357000CE011995E881F9810688F789E02DCE0101
:10358000DF91CF911F910F91FF90EF90DF90CF903F
:10359000BF90AF909F908F9019948F929F92AF920F
:1035A000BF92CF92DF92EF92FF920F931F93CF9330
:1035B000DF93EC015B014A0169017801E881F9813F
:1035C0000284F385E02D1995C80CD91C86010150A1
:1035D0001109E881F9810488F589E02D9501A4019C
:1035E000B501CE011995E881F9810688F789E02DAA
:1035F000CE01DF91CF911F910F91FF90EF90DF905F
:10360000CF90BF90AF909F908F9019940895EF92B4
:10361000FF920F931F93DC01ED91FC9100A0F1A1AB
:10362000E02D19951F910F91FF90EF9008950F9342
:103630001F93DC01ED91FC91068CF78DE02D19951F
:103640001F910F9108950F931F93DC01ED91FC9151
:10365000048CF58DE02D19951F910F910895DC01D3
:10366000ED91FC910084F185E02D19942F923F9209
:103670004F925F926F927F928F929F92AF92BF9282
:10368000CF92DF92EF92FF920F931F93CF93DF932E
:1036900000D000D0CDB7DEB73C016A013E832D8358
:1036A000FC82EB825801A41AB50AB7FE03C0B1949C
:1036B000A194B1088D809E80861A970A97FE03C058
:1036C0009194819491088A149B045CF0902F812F2F
:1036D0000D811E819D838E839C2D8D2D6B01692F05
:1036E000782F0C151D055CF09D818E817E836D8386
:1036F000692F782F902F812F8601C92ED82E160181
:10370000201A310A2B012D813E81421A530A57FE9D
:1037100003C0519441945108710137FE03C03FEF3B
:10372000E31AF30AF594E7948D819E818617970733
:103730005CF5A1E0B0E0BA83A983C016D1064CF1D4
:10374000D301ED91FC910484F585E02D2B813C8122
:10375000A8016D817E818A149B041CF04D815E81DD
:10376000B801C3011995E418F508F7FE0AC02D81C8
:103770003E8189819A81280F391F3E832D83E20C77
:10378000F31C0F5F1F4FD9CF2FEF3FEF3A832983F1
:10379000D4CF26960FB6F894DEBF0FBECDBFDF9113
:1037A000CF911F910F91FF90EF90DF90CF90BF903E
:1037B000AF909F908F907F906F905F904F903F90D1
:1037C0002F900895089585ED8093BC008091BC00F2
:1037D00084FDFCCF1092080A08952091E409260F79
:1037E0003327331F21323105ECF42091080AFC0104
:1037F00090E080E0243069F082E00895A091E4092F
:103800002191AC014C53564FA40FB52FB11D2C93F1
:103810000196861798F38091E409680F6093E40994
:1038200080E0089581E008958FEF9FEF08958FEF76
:103830009FEF08958091C30990E09195819591093A
:103840000895CF93DF93CB01EA01642FC6DFCE0149
:10385000DF91CF910895CF93DF931F92CDB7DEB75D
:10386000698361E0CE010196B8DF81E090E00F90BE
:10387000DF91CF9108958EBD0DB407FEFDCF089561
:103880008FEF8EBD0DB407FEFDCF8EB508950F935B
:103890001F93CF93DF93EC010E9410118B01F0DF97
:1038A0008F3F69F00E941011601B710BC617D7077C
:1038B000B0F780E0DF91CF911F910F91089581E0E3
:1038C000F9CF0895FC0187A987FD06C0A38DB48DAB
:1038D0009C9181A9892B8C930895CF93DF93FC0150
:1038E0002581222359F0EC010380F481E02D61E071
:1038F00082810E943B0C8FEFBEDF1D82DF91CF9152
:103900000895EF92FF920F931F93CF93DF93EC01F3
:103910007B010E9410118B01B3DF8E838F3F99F4DE
:103920000E941011601B710B693E7340A8F385E57E
:103930008A83CE01D2DF80E0DF91CF911F910F917A
:10394000FF90EF9008958E3F11F080E5F1CF8FEF5B
:103950008EBDF701D701A150BE4F9FEF0DB407FEFA
:10396000FDCF8EB59EBD8193AE17BF07B9F70DB4DD
:1039700007FEFDCF8EB58C931E8282DF81DF81E052
:10398000DBCF0F931F93CF93DF938C01862FEA0138
:1039900072DF88818EBD8981FE013296DE5F0DB4B3
:1039A00007FEFDCF8EBDEC17FD0711F08191F7CF1B
:1039B0000DB407FEFDCF8FEF5EDF8FEF5CDF60DFC2
:1039C000F80186838F71853051F087E58283C801C5
:1039D00084DF80E0DF91CF911F910F91089581E006
:1039E000F9CF8CBD9DBD0895FC0125A9211103C00F
:1039F00081A192A1F6CF08950F931F93CF93DF93E8
:103A0000EC018B01F1DF8FA987FD06C0EB8DFC8DEA
:103A100080819AA989238083ED8DFE8D80819CA968
:103A20008923808366E3CE010E942E12ED8DFE8DE8
:103A300080819BA9892B8083F8016081CE010E943F
:103A40002E128FA987FD06C0EB8DFC8D808199A970
:103A5000892B8083DF91CF911F910F910895CF9390
:103A6000DF931F92CDB7DEB7FC0119826370668BBE
:103A7000DC01AD5BBF4F2C9130E011968C9190E052
:103A8000623031F06330C1F0613079F040EC49834D
:103A900032AF21AF94AF83AFBE016F5F7F4FCF01D5
:103AA000ABDF0F90DF91CF91089540EA498334AFA7
:103AB00023AF92AF81AFF0CF40E6F8CFCF93DF9343
:103AC0001F92CDB7DEB7FC0119826370668BDC01F3
:103AD000AA5BBF4F8C91982F9B7FAF014C5B5F4FD0
:103AE000913031F493E0623008F091E0DA019C9378
:103AF0009F012D5B3F4F623009F44BC0633009F4E6
:103B000058C0613061F1823021F098EC843009F0C6
:103B100045C090EC99838130C9F480E890E09387A8
:103B2000828791878087D9018C9190E092AF81AF95
:103B3000DA018C9190E094AF83AFBE016F5F7F4F4D
:103B4000CF015ADF0F90DF91CF910895843051F566
:103B500080EA90E09387828780E590E0E2CF823030
:103B600019F098EA843061F590EA9983813091F5F3
:103B700080E890E09187808793878287D9018C9134
:103B800090E094AF83AFDA018C9190E092AF81AF77
:103B9000D4CF823039F08430D9F298E099838130E3
:103BA00009F4BBCF80EA90E09387828780E890E0B9
:103BB000B8CF823019F098E6843011F490E6D5CF72
:103BC00099838130A9F280EA90E09187808780E82C
:103BD00090E0D2CF8430B9F780EA90E09187808777
:103BE00080E590E0C9CFCF92DF92EF92FF920F93E2
:103BF0001F93CF93DF93BC016F5F7F4FFC01149144
:103C0000115008F466C0FB01D4916B01F2E0CF0EB5
:103C1000D11CFB0131960491C02FCF7789EC9FE036
:103C2000E3DE8091001087FD09C0E091E40FF09180
:103C3000E50F80819091FB0F89238083E091E60F4F
:103C4000F091E70F80819091FD0F892380836D2F84
:103C500089EC9FE00E942E12E091E60FF091E70FB1
:103C600080819091FC0F892B8083F12CE12CD0E096
:103C7000EC16FD0664F4F601EE0DFF1D649189EC6F
:103C80009FE00E942E128FEFE81AF80AF1CF809180
:103C9000001087FD09C0E091E40FF091E50F8081ED
:103CA0009091FA0F892B8083B6016C0F7D1F07FF5F
:103CB000A7CFEB012196FB01649170E06F3F710586
:103CC00011F464EF71E090E080E00E94B210BE0158
:103CD00097CFDF91CF911F910F91FF90EF90DF90E1
:103CE000CF900895CF93DF93EC017EDE8FA987FDFF
:103CF00006C0EB8DFC8D80819AA989238083DF919A
:103D0000CF9108953F924F925F926F927F928F92E0
:103D10009F92AF92BF92CF92DF92EF92FF920F935A
:103D20001F93CF93DF9300D01F92CDB7DEB73C0136
:103D30006B014A01590189EC9FE0D4DF250187E03E
:103D4000480E511C93E0559447949A95E1F7C601AB
:103D5000800F911F9A83898310E000E0312C1C8230
:103D60001B828B819C8187709927330C892B61F48E
:103D7000EB81FC8183E0F595E7958A95E1F7E00F0B
:103D8000F11FE80DF91D349037FE0AC09701A60116
:103D90006B817C81660D771D89EC9FE00E941F1668
:103DA0008B819C8101969C838B83A816B906C9F6EA
:103DB0009FEFC91AD90A040D151D89819A81C81669
:103DC000D90669F689EC9FE00F900F900F900F9045
:103DD000DF91CF911F910F91FF90EF90DF90CF90E7
:103DE000BF90AF909F908F907F906F905F904F901B
:103DF0003F9068CDCF93DF93FC01258121110FC047
:103E0000EC010380F481E02D80819181EADDEB817A
:103E1000FC8160E082810E943B0C81E08D83DF9118
:103E2000CF910895DF92EF92FF920F931F93CF935C
:103E3000DF938C01C62FD22FF32EE42ED52EFC015A
:103E40008581811102C0C801D5DFCC2319F08CE235
:103E500091E01DDD8C2F80640EDD8D2D0CDD8E2D0F
:103E60000ADD8F2D08DD8D2F06DD87E8C11101C029
:103E700085E901DD05DDCBE003DDF801868387FF01
:103E800002C0C150C9F7DF91CF911F910F91FF90F0
:103E9000EF90DF900895CF92DF92EF92FF920F9311
:103EA0001F93CF93DF93EC0179018F81833039F039
:103EB00089E0440F551F661F771F8A95D1F79A0135
:103EC000AB0169E1CE01AEDFD12CC12C8823E1F03A
:103ED00083E38A83CE0101DDCE01FFDC10E0812F78
:103EE000DF91CF911F910F91FF90EF90DF90CF90D6
:103EF0000895A7016CEFCE0144DD882359F38FEFBD
:103F0000C81AD80A8EEFF81A80ED97E0C016D106CD
:103F100029F0BDDC8111EDCF8BE5DBCFB8DC182FAC
:103F2000882329F08DEFA7DCCE01D7DCD8CF86E53A
:103F30008A83FACF0F931F93CF93DF93EC0189010C
:103F40008F81833039F089E0440F551F661F771F3A
:103F50008A95D1F79A01AB0168E1CE0163DF88232E
:103F600031F082E38A83CE01B8DC10E01CC0A801E6
:103F70006EEFCE0106DD8823B1F380ED97E087DC9C
:103F8000182F8AE5112371F320E030E0A9016DE0DC
:103F9000CE0148DF882311F089E2E4CF71DC811182
:103FA000FBCFCE019ADC812FDF91CF911F910F9132
:103FB0000895CF92DF92EF92FF920F931F93CF93CA
:103FC000DF93EC0179018F81833039F089E0440F70
:103FD000551F661F771F8A95D1F79A01AB0162E1E1
:103FE000CE0120DFD12CC12C882371F081E38A839C
:103FF000CE0173DC80E0DF91CF911F910F91FF9094
:10400000EF90DF90CF9008950C151D0559F0B70182
:10401000CE0177DC882379F38FEFC81AD80A8EEFA8
:10402000F81AF2CF20E030E0A9016CE0CE01FADE10
:10403000882311F088E2DBCFCE014FDC81E0DBCFBB
:104040000F931F93CF93DF93EC0189018F8183300E
:1040500039F089E0440F551F661F771F8A95D1F705
:104060009A01AB0161E1CE01DDDE882331F080E30E
:104070008A83CE0132DC10E008C0B801CE0141DCF9
:10408000182F8823B1F3CE0128DC812FDF91CF9147
:104090001F910F910895DC01ED91FC910480F58151
:1040A000E02D1994EF92FF921F93CF93DF93FC01C1
:1040B000208111E020FF13C0EC017C01F7E0EF0E3E
:1040C000F11C4B815C816D817E81E981FA819701D0
:1040D00080819181E0DF182F811108C010E0812FCD
:1040E000DF91CF911F91FF90EF900895E981FA81C0
:1040F0008681823021F088818E7F8883F0CF88810D
:1041000081FFF9CF4B815C816D817E8185859685AC
:10411000A785B089480F591F6A1F7B1F97018081AF
:104120009181B9DF8111E7CFD9CFCF92DF92EF92A2
:10413000FF921F93CF93DF93EC016A017B01122F53
:104140008B819C81AD81BE818C159D05AE05BF051F
:10415000A9F0CE01A7DF81110AC090E080E0DF91D5
:10416000CF911F91FF90EF90DF90CF90089512FFB5
:104170000CC01882CB82DC82ED82FE8213708881B3
:10418000182B1883CE010796EACFE981FA81808146
:104190009181DC01ED91FC910190F081E02D9E0177
:1041A000295F3F4FB701A60119958111E2CFD5CF05
:1041B0008F929F92AF92BF92CF92DF92EF92FF9237
:1041C000CF931092C21041E050E060E070E0409365
:1041D000C6105093C7106093C8107093C9102DEB90
:1041E00030E13093E0102093DF101092DE104FEF9B
:1041F0005FEFBA014093E1105093E2106093E31037
:104200007093E410882309F451C020E040E050E0AE
:10421000BA018EED90E189DF009759F480E0CF91EB
:10422000FF90EF90DF90CF90BF90AF909F908F90D6
:104230000895FC01E254FE4F20812F7779F78A53CD
:104240009E4FFC01C080D180E280F380C114D10474
:10425000E104F10419F320E0B701A6018EED90E12D
:1042600064DFFC01892BD1F283859485811592400E
:10427000A9F6A0898FEF8A0F823080F68685978510
:10428000892B61F2A093C31095859093BF108FEF97
:10429000890F8093C010C0E081E0981769F0CF5F6C
:1042A000C93041F488E08093C110B8CFC12CD12C23
:1042B0007601D1CF880FF1CFC093C11026893789FD
:1042C00050E040E02115310521F424A135A146A19B
:1042D00057A12093CA103093CB104093CC10509329
:1042E000CD108685978546015701880E991EA11C21
:1042F000B11C8092D2109092D310A092D410B092A0
:10430000D510818992899093C5108093C410B0E034
:104310000E94DB79DC01CB01880D991DAA1DBB1D14
:104320008093DA109093DB10A093DC10B093DD1033
:104330002189328945E0220F331F4A95E1F7215048
:104340003E4F232F33272695820F931FA11DB11DAA
:104350008093CE109093CF10A093D010B093D11033
:1043600083889488B12CA12C8114910421F480A01D
:1043700091A0A2A0B3A0C81AD90AEA0AFB0AC80CE5
:10438000D91CEA1CFB1C04C0F694E794D794C7948C
:10439000CA95D2F7D701C6010196A11DB11D809320
:1043A000D6109093D710A093D810B093D91085EF62
:1043B000C8168FE0D806E104F10428F48CE080935D
:1043C000C21081E02CCF80E125EFC2162FEFD2067C
:1043D000E104F104A0F384A595A5A6A5B7A5809353
:1043E000DA109093DB10A093DC10B093DD1080E224
:1043F000E6CF4F925F926F927F928F929F92AF9291
:10440000BF92CF92DF92EF92FF920F931F93CF93C1
:10441000DF9300D000D0CDB7DEB79A8389836A01DD
:104420007B0148015901DC0115968C91159780326A
:1044300009F042C055968D919D910D90BC91A02D93
:10444000E7E07695679557954795EA95D1F7480F38
:10445000591F6A1F7B1F23E089819A81819665DE3F
:104460000097C1F480E026960FB6F894DEBF0FBE29
:10447000CDBFDF91CF911F910F91FF90EF90DF9013
:10448000CF90BF90AF909F908F907F906F905F90F4
:104490004F900895E894C7F8DD24EE24FF24CC0C57
:1044A000DD1CCC0CDD1C8C0D9D1DFC0180829182DD
:1044B000A282B38281E0D7CF8031E9F4A981BA81A9
:1044C00055964D915D916D917C9158974D0D511D73
:1044D000611D711D23E0CD01819627DE009711F249
:1044E000DD24EE24FF24CC0CDD1C8C0D9D1DFC0175
:1044F00011830083DFCF8C3009F0B4CF8A01169589
:104500000795040F151FC801892F99278695A98142
:10451000BA8155964D905D906D907C905897480E5D
:10452000591E611C711C9196BE83AD8323E0B301BB
:10453000A201CD01FADD009709F494CF1170282D66
:10454000FC01E00FF11FB701A60141705527662756
:10455000772749835A836B837C83C0FE07C0208101
:104560002F7060E1869EA0011124242B20830F5F11
:104570001F4F011572E0170779F4B301A2014F5FD5
:104580005F4F6F4F7F4F23E08D819E81CEDD00977F
:1045900009F468CF10E000E024E0B694A794979463
:1045A00087942A95D1F7282DFC01E00FF11F89810E
:1045B0009A81AB81BC81892B8A2B8B2B31F4208192
:1045C000207F82948FE088222829208373CF2F9226
:1045D0003F924F925F926F927F928F929F92AF9293
:1045E000BF92CF92DF92EF92FF920F931F93CF93E0
:1045F000DF934230510561057105A0F48FEFDF9123
:10460000CF911F910F91FF90EF90DF90CF90BF90CF
:10461000AF909F908F907F906F905F904F903F9062
:104620002F900895FC01C18CD28CE38CF48CC416BD
:10463000D506E606F70610F319016A017B01EC01C5
:1046400085818032C1F585899689A789B08DE7E09B
:104650007695679557954795EA95D1F7480F591F75
:104660006A1F7B1F22E0CE0181965FDD009731F249
:10467000E894C7F8DD24EE24FF24CC0CDD1CCC0C20
:10468000DD1C8C0D9D1DFC0180809180A280B3807B
:10469000FFE0BF22898D9A8DAB8DBC8D8815990561
:1046A000AA05BB0508F46FC0F10180829182A28245
:1046B000B38281E0A4CF8031E1F4458956896789CE
:1046C000708D4D0D511D611D711D22E0CF01819630
:1046D0002CDD009709F492CFDD24EE24FF24CC0CCE
:1046E000DD1C8C0D9D1DFC0180809180B12CA12CC6
:1046F000D1CF8C3009F082CF8A0116950795040F2F
:10470000151FC801892F992786954588568867887F
:10471000708C480E591E611C711C5F01F1E2AF0ED6
:10472000B11C22E0B301A201C501FFDC009709F42E
:1047300065CF1170FC01E00FF11F8080912C0F5F9D
:104740001F4F011522E0120771F4B301A2014F5F60
:104750005F4F6F4F7F4F22E0C501E7DC009709F400
:104760004DCF10E000E0800F911FFC018081982A5E
:10477000C0FE06C084E0969487948A95E1F7B6CF90
:10478000FFE09F22B3CF80E03ACF9F92AF92BF92DB
:10479000CF92DF92EF92FF920F931F93CF93DF930D
:1047A00000D01F92CDB7DEB75C016A017B019E018C
:1047B0002F5F3F4FB701A601C50109DF982E87FD86
:1047C00043C082E0C816D104E104F104E8F1F50128
:1047D000818D928DA38DB48D8C159D05AE05BF0581
:1047E00098F100E010E09801B701A601C50101DED3
:1047F000882351F1F50141855285638574854C15F7
:104800005D056E057F0550F0F1E0CF1AD108E10893
:10481000F108F501C186D286E386F486C980DA8084
:10482000EB80FC809110C3CF0F900F900F900F90F2
:10483000DF91CF911F910F91FF90EF90DF90CF907C
:10484000BF90AF909F90089580E0EECFFC019C0157
:10485000255F3F4F80E080FB879587F99191890F15
:104860002E173F07C1F708954F925F926F927F9284
:104870008F929F92AF92BF92CF92DF92EF92FF9270
:104880000F931F93CF93DF93EC014A015B014C849C
:104890005D846E847F84A881AA2309F485C0488939
:1048A00059896A897B89481559056A057B0569F02C
:1048B00081149104A104B10451F41C861D861E8646
:1048C0001F86888A998AAA8ABB8A81E072C0A3FF60
:1048D00058C0088D198D2A8D3B8D081519052A059C
:1048E0003B0508F461C0EE81FF81848190E0099668
:1048F0008A019B010150110921093109082E04C0C8
:1049000036952795179507950A94D2F77501640196
:10491000B1E0CB1AD108E108F10804C0F694E7949D
:10492000D794C7948A95D2F7C016D106E206F3064B
:1049300028F0452B462B472B09F051C0A6FF4AC053
:10494000858D968DA78DB0A18C879D87AE87BF87FB
:104950008E01045F1F4FC114D104E104F10409F476
:10496000B0CF4C855D856E857F8598018E819F8156
:104970002EDE91E0C91AD108E108F10818165CF39F
:1049800013C0A5FFB0CFEE81FF818781908525E020
:10499000880F991F2A95E1F7B0E0A0E088159905E6
:1049A000AA05BB0508F08DCF4C865D866E867F8696
:1049B00080E0DF91CF911F910F91FF90EF90DF90FA
:1049C000CF90BF90AF909F908F907F906F905F90AF
:1049D0004F9008958C8D9D8DAE8DBF8DB5CFC01A33
:1049E000D10AE20AF30AB4CF3F924F925F926F92DC
:1049F0007F928F929F92AF92BF92CF92DF92EF926F
:104A0000FF920F931F93CF93DF9300D01F92CDB7E8
:104A1000DEB74C01FC01828184608283A680B7806E
:104A20004484558466847784F501C184D284E38408
:104A3000F484C414D504E604F70410F011E003C0B4
:104A40007301620110E0FFEFCF1ADF0AEF0AFF0ADD
:104A5000F501818D928DA38DB48D8C159D05AE05CC
:104A6000BF0538F411112AC0C184D284E384F484D0
:104A7000E5CF4C145D046E047F0401F19E012F5FAD
:104A80003F4FB701A601C501A2DD87FD17C08823EE
:104A9000D1F289819A81AB81BC81892B8A2B8B2BA6
:104AA00091F6112329F0F501C186D286E386F486BA
:104AB000F2E0CF16D104E104F104C0F4312C832DCF
:104AC0000F900F900F900F90DF91CF911F910F914A
:104AD000FF90EF90DF90CF90BF90AF909F908F901E
:104AE0007F906F905F904F903F900895F501818D7A
:104AF000928DA38DB48D8C159D05AE05BF05F0F28A
:104B00000FEF1FEF2FEF3FE0B701A601C50171DCEA
:104B1000382E882399F2411451046104710431F450
:104B2000F401C486D586E686F786C9CFF2E04F1633
:104B300051046104710410F2F501818D928DA38DF1
:104B4000B48D84159505A605B70508F4B7CF970170
:104B50008601B301A201C5014CDC8111E1CFAECFCA
:104B6000CF93DF93EC0181969DDA882359F08881F9
:104B70009981DC01ED91FC910280F381E02DDF91C0
:104B8000CF91199480E0DF91CF910895CF93DF9377
:104B9000FC012081211104C081E0DF91CF910895B3
:104BA000EC01828182FF38C0448955896689778902
:104BB0008681978121E08196B8DA009729F489816E
:104BC0008160898380E0E9CFEC81FD81EF70FF2770
:104BD00025E0EE0FFF1F2A95E1F7E80FF91F309748
:104BE00071F38081853E59F3888183FF08C0888DE9
:104BF000998DAA8DBB8D848F958FA68FB78F8C8D45
:104C00009D8D938F828F8C8D9D8DAE8DBF8DB58B3D
:104C1000A48B8A818B7F8A838E819F81A1DF8823E9
:104C200071F2BACFCF93DF93EC01B0DF1882DF913E
:104C3000CF910895CF93CFB7F8948091C209811195
:104C400027C0E5EAF3E18491E5E4F3E19491E82FEC
:104C5000F0E0EE0FFF1FED53F84FA591B491EC91EA
:104C6000E92321F461E085E30E943B0C61E085E3E8
:104C70000E949D0D8CB580618CBD8CB580648CBD0F
:104C800061E084E30E949D0D61E083E30E949D0D3D
:104C90008091C2098F5F8093C209CFBFCF910895E1
:104CA000CF93DF93EC0188819981461B570BDC0180
:104CB000ED91FC910280F381E02D19952A813B81D1
:104CC000820F931F9B838A83DF91CF910895EF9288
:104CD000FF921F93CF93DF93CDB7DEB766970FB6E2
:104CE000F894DEBF0FBECDBF9C01CB01FE017796CD
:104CF0004E2F1F2F5AE0E52EF12CB7010E94CA7AE1
:104D0000805D8293CB010097C1F7512FBF01C9018C
:104D1000C7DF66960FB6F894DEBF0FBECDBFDF913A
:104D2000CF911F91FF90EF900895CF93DF93EC0107
:104D300088819981DC01ED91FC910190F081E02D59
:104D400019952A813B81820F931F9B838A83DF9170
:104D5000CF9108958F929F92AF92BF92CF92DF92A0
:104D6000EF92FF920F931F93CF93DF93CDB7DEB7F0
:104D700066970FB6F894DEBF0FBECDBF7C018E01E3
:104D8000095E1F4F68018AE0882E912CA12CB12C5E
:104D9000CB01BA01A50194010E94EB79942F852FD4
:104DA000605DF80162938F01A901692F782F411589
:104DB00051056105710561F7A601BF01C70170DFEB
:104DC00066960FB6F894DEBF0FBECDBFDF91CF91D0
:104DD0001F910F91FF90EF90DF90CF90BF90AF9019
:104DE0009F908F9008954F925F926F927F928F92D3
:104DF0009F92AF92BF92DF92EF92FF920F931F9319
:104E0000CF93DF938C01EB0188818B32D1F18D320E
:104E1000C9F52196EE24E394888190ED980F9A309D
:104E200010F08E3289F560E070E0CB01FE01219137
:104E3000A0ED8A2E820E39E0381508F440C06A3998
:104E400029E97207820729E1920708F04DC0AAE01C
:104E5000B0E09B01AC010E94DB79912CB12CA12C1C
:104E6000240135014094509460947094461657067E
:104E700068067906C8F1680D791D8A1D9B1DEF0132
:104E8000D5CF2196E12CC8CFF80110821182128271
:104E9000138214821582168217821086C801DF9150
:104EA000CF911F910F91FF90EF90DF90BF90AF9047
:104EB0009F908F907F906F905F904F9008952111F9
:104EC00013C0F80160837183828393830E94AA7860
:104ED000F80164837583868397838AE0E11001C0BB
:104EE00088E0F8018087DACFF12CEAE08E2E912C51
:104EF000A12CB12C61157105F0E88F07910540F0E8
:104F0000A50194010E94EB79CA01B901F394F2CF93
:104F1000FE01299130ED320F3A3010F4F394F8CFBE
:104F20002E32F1F4EF012196FE012196208150ED01
:104F3000D52ED20E29E02D1598F06C3C3CEC730771
:104F40003CE08307910580F7AAE0B0E09B01AC014B
:104F50000E94DB796D0D711D811D911DFA94E4CFC6
:104F600020812F7DD0E0C0E0253409F04FC02181A1
:104F70002D32A9F53296BB24B394DF01D0E0C0E016
:104F80002F2D0F2C000C330B4AE0A42EFD01DD90D9
:104F900040ED4D0D4A30A8F5AC9EA001AD9E500DE0
:104FA0001124CD2DDD0CDD0BE097C40FD51FAE0114
:104FB000420F531F473251054CF3BB20B9F080E03C
:104FC00090E0A0E0B0E8E11003C080E090E0DC01F8
:104FD000F80184839583A683B7838CE083CF2B323B
:104FE00019F03196B12CC9CF3296FCCF80E090E019
:104FF000A0E8BFEFE110ECCF80E090E0A0E8BFE7D1
:10500000E7CFBB2019F0D195C195D109208121119D
:105010003BCFCF0DD11DF7FCDA950E94AA781C1664
:105020001D06E4F4F12CC0FF0CC024E0F29EF00158
:105030001124E257FC4F20813181428153810E942B
:105040000B79D595C795F394209769F7E11090589F
:10505000F8016483758386839783BFCFD195C1950B
:10506000D109F12C209791F3C0FF0CC024E0F29EEF
:10507000F0011124EA58FC4F208131814281538193
:105080000E940B79D595C795F394ECCF80339CF0B3
:105090008A3324F08F3524F08B3724F481E008958F
:1050A00081344CF08B35D4F393ED980F81E092303E
:1050B000B0F380E008958B32B9F7F0CFCF92DF9252
:1050C000EF92FF920F931F93CF93DF93EC018885AC
:1050D000811130C00A811B810E941011D8011896DD
:1050E0006D937D938D939C931B97D801ED91FC91CB
:1050F0000284F385E02DC801199597FF25C00E9411
:105100001011F801C084D184E284F3846C197D0904
:105110008E099F09C480D580E680F7806C157D05D7
:105120008E059F0510F38FEF9FEF97FD80E08F8333
:1051300081E088878F81DF91CF911F910F91FF9040
:10514000EF90DF90CF900895082E000C990BEDCFD3
:105150001F93CF93DF93EC01CE01B0DF8B303CF493
:1051600089305CF48823D9F090E080E01AC0803266
:1051700021F08F3221F08D30B9F71886EDCF1886E7
:10518000CE019CDF8A3229F08F32C9F082E090E0B4
:1051900008C0188610E0CE0191DF811106C081E0C1
:1051A00090E0DF91CF911F9108958F3211F411118A
:1051B000E4CF11E08A3209F010E01886ECCF1886AF
:1051C000CE017CDF882359F38A30C9F7C5CFCF934E
:1051D000FC01892B91F094819F77983029F078F425
:1051E000992359F0963079F4C1E080819181A281B0
:1051F000B381892B8A2B8B2B39F4C0E005C09A3000
:1052000099F39C3021F0C1E08C2FCF910895C1E03B
:1052100020E030E0A90160817181828193810E9448
:10522000A6788111F1CFE9CFCF92DF92EF92FF9272
:10523000CF93DF9300D000D000D0CDB7DEB7FC0114
:10524000892B39F094819F77963069F028F4943057
:1052500080F570E060E01FC09A3081F09C3009F466
:1052600058C09830B1F780819181A281B381BC018F
:1052700081159048A105B10570F0EBCF8081918137
:10528000A281B38166277727681B790B813090480C
:10529000A105B105F0F6CB0129960FB6F894DEBF53
:1052A0000FBECDBFDF91CF91FF90EF90DF90CF90F9
:1052B000089560817181CE01019695DD89819A8181
:1052C000AB81BC8129852A30E9F22C3021F02830CD
:1052D00009F0BFCFCCCFCD80DE80EF80F88420E016
:1052E00030E040E057ECC701B6010E94B27A87FD7A
:1052F000B0CF20E03EEF4FEF56E4C701B6010E9469
:10530000A67818160CF4A5CFC701B6010E94817AC1
:10531000C2CFC080D180E280F380E1CFCF92DF9214
:10532000EF92FF92CF93DF9300D000D000D0CDB7A3
:10533000DEB7FC01892B39F094819F77963081F09C
:1053400030F49430F0F460E070E0CB010DC09830A0
:1053500039F09C30C1F7C080D180E280F3801FC05B
:10536000608171818281938129960FB6F894DEBFA6
:105370000FBECDBFDF91CF91FF90EF90DF90CF9028
:10538000089560817181CE0101962DDD8985883077
:10539000F9F08C30C1F6CD80DE80EF80F88420E01B
:1053A00030E0A901C701B6010E94B27A87FDCBCFD8
:1053B00020E030E040E85FE4C701B6010E94A67833
:1053C00018160CF4C0CFC701B6010E94867ACCCF64
:1053D00069817A818B819C81C7CFFC019B01892BDC
:1053E000D1F0AB01770F660B770B9481907837FD86
:1053F00008C098609483408351836283738381E003
:1054000008959A60948370956095509541955F4F8B
:105410006F4F7F4FF0CF80E0089510923E0A1092B8
:105420003D0A1092C1091092C0091092BF09109252
:10543000BE091092BD091092BC09089581E08093C5
:105440002B0E10920C0210920B021092BF091092B8
:10545000BE09089561E087E20E943B0C61E086E2AC
:105460000C943B0C60E087E20E943B0C60E086E21B
:105470000C943B0C61E08AE00E943B0C60E084E00D
:105480000E943B0C62E370E080E090E00C94B2106C
:105490008F929F92AF92BF92CF92DF92EF92FF9244
:1054A000CF93DF938FEF9FEFDC018093390A9093C6
:1054B0003A0AA0933B0AB0933C0A80911E102091B7
:1054C000070230910802811169C0F901EE0FFF1F38
:1054D000EE0FFF1FEA5CFC4F4081518162817381B6
:1054E0008FEF9FEF90930A0280930902C0907F1084
:1054F000D0908010E0908110F0908210A3EBB9E082
:1055000090E080E02115310509F056C08D909D9006
:10551000AD90BC9013978C149D04AE04BF0409F0A9
:1055200060C0D3E0880F991FDA95E1F7FC01ED54D4
:10553000F64F84819581A681B781840F951FA61FA0
:10554000B71F409183105091841060918510709125
:10555000861084179507A607B70709F0B6C081E043
:1055600090E090930A028093090210923E0A1092F2
:105570003D0A1092380A1092390A10923A0A109293
:105580003B0A10923C0ADF91CF91FF90EF90DF90A1
:10559000CF90BF90AF909F908F90089540E050E0E3
:1055A000BA01813009F09CCFF901EE0FFF1FEE0F19
:1055B000FF1FE25FFC4F90CF21303105C9F4FC01A1
:1055C000C3E0EE0FFF1FCA95E1F7ED54F64F808060
:1055D0009180A280B3808C149D04AE04BF0409F4B2
:1055E000A8CF019618968931910509F08BCFCBCFC2
:1055F0002230310549F4FC01D3E0EE0FFF1FDA95AC
:10560000E1F7ED54F64FE3CF2330310549F4FC01C7
:10561000C3E0EE0FFF1FCA95E1F7ED54F64FD7CF69
:105620002430310549F4FC01D3E0EE0FFF1FDA9579
:10563000E1F7ED59F24FCBCF2530310549F4FC01AC
:10564000C3E0EE0FFF1FCA95E1F7E556F34FBFCF5A
:105650002630310549F4FC01D3E0EE0FFF1FDA9547
:10566000E1F7ED52F44FB3CF2730310549F4FC0197
:10567000C3E0EE0FFF1FCA95E1F7E55FF44FA7CF38
:1056800028303105A9F4FC01D3E0EE0FFF1FDA95B5
:10569000E1F7EF01CD5BD54F88809980AA80BB8070
:1056A0008C149D04AE04BF0409F09BCFFE0141CFD2
:1056B0002930310509F095CFFC01C3E0EE0FFF1F43
:1056C000CA95E1F7ED54F64F82CF10920A0210927C
:1056D00009028093390A90933A0AA0933B0AB09347
:1056E0003C0A81E08093380A4ECF0F931F93FC0150
:1056F00090E080E000811181228133810417150739
:105700002607370739F0019638968931910591F7C8
:105710008FEF9FEF1F910F910895CF92DF92EF923D
:10572000FF928091070290910802009709F04DC006
:10573000C0907F10D0908010E0908110F090821087
:10574000B701A60183EB99E0D0DF4091831050911F
:105750008410609185107091861097FD0DC0B3E0A4
:10576000880F991FBA95E1F7FC01ED54F64F448379
:1057700055836683778319C08091B1099091B209EE
:10578000FC01A3E0EE0FFF1FAA95E1F7ED54F64FE1
:10579000C082D182E282F382448355836683778319
:1057A00001969093B2098093B1091092040210926D
:1057B000030281E08093B8091092C1091092C009D8
:1057C000FF90EF90DF90CF90089581309105D1F553
:1057D000C0907F10D0908010E0908110F0908210E7
:1057E000B701A60183EB99E080DF409183105091CF
:1057F0008410609185107091861097FD09C033E088
:10580000880F991F3A95E1F7FC01ED54F64FAFCFA1
:105810008091AF099091B009FC0123E0EE0FFF1FCA
:105820002A95E1F7ED54F64FC082D182E282F382ED
:10583000448355836683778301969093B009809360
:10584000AF09B3CF82309105D1F5C0907F10D090D1
:105850008010E0908110F0908210B701A60183EBD8
:1058600099E043DF4091831050918410609185103E
:105870007091861097FD09C0B3E0880F991FBA9503
:10588000E1F7FC01ED54F64F72CF8091AD09909194
:10589000AE09FC01A3E0EE0FFF1FAA95E1F7ED545E
:1058A000F64FC082D182E282F382448355836683BD
:1058B000778301969093AE098093AD0976CF8330BC
:1058C0009105D1F5C0907F10D0908010E0908110AC
:1058D000F0908210B701A60183EB99E006DF4091BA
:1058E000831050918410609185107091861097FDFF
:1058F00009C033E0880F991F3A95E1F7FC01ED5498
:10590000F64F35CF8091AB099091AC09FC0123E0B3
:10591000EE0FFF1F2A95E1F7ED54F64FC082D182BA
:10592000E282F38244835583668377830196909362
:10593000AC098093AB0939CF84309105D1F5C09083
:105940007F10D0908010E0908110F0908210B7010D
:10595000A60183E69DE0C9DE40918310509184103A
:10596000609185107091861097FD09C0B3E0880F93
:10597000991FBA95E1F7FC01ED59F24FF8CE8091ED
:10598000A9099091AA09FC01A3E0EE0FFF1FAA95B7
:10599000E1F7ED59F24FC082D182E282F382448373
:1059A00055836683778301969093AA098093A9090A
:1059B000FCCE85309105D1F5C0907F10D09080103D
:1059C000E0908110F0908210B701A6018BE99CE075
:1059D0008CDE4091831050918410609185107091FD
:1059E000861097FD09C033E0880F991F3A95E1F7BB
:1059F000FC01E556F34FBBCE8091A7099091A80911
:105A0000FC0123E0EE0FFF1F2A95E1F7E556F34F67
:105A1000C082D182E282F382448355836683778396
:105A200001969093A8098093A709BFCE863091056F
:105A3000D1F5C0907F10D0908010E0908110F09050
:105A40008210B701A60183ED9BE04FDE40918310E9
:105A500050918410609185107091861097FD09C057
:105A6000B3E0880F991FBA95E1F7FC01ED52F44FAE
:105A70007ECE8091A5099091A609FC01A3E0EE0FCE
:105A8000FF1FAA95E1F7ED52F44FC082D182E28266
:105A9000F382448355836683778301969093A609A6
:105AA0008093A50982CE87309105D1F5C0907F10F3
:105AB000D0908010E0908110F0908210B701A60184
:105AC0008BE09BE012DE4091831050918410609136
:105AD00085107091861097FD09C033E0880F991FDB
